{
  "address": "0x04Bc70Bf89eF7af019fc2bFD0f1e7b2B0Fd25788",
  "abi": [
    {
      "inputs": [
        {
          "internalType": "address",
          "name": "_feeToSetter",
          "type": "address"
        }
      ],
      "stateMutability": "nonpayable",
      "type": "constructor"
    },
    {
      "anonymous": false,
      "inputs": [
        {
          "indexed": true,
          "internalType": "address",
          "name": "token0",
          "type": "address"
        },
        {
          "indexed": true,
          "internalType": "address",
          "name": "token1",
          "type": "address"
        },
        {
          "indexed": false,
          "internalType": "address",
          "name": "pair",
          "type": "address"
        },
        {
          "indexed": false,
          "internalType": "uint256",
          "name": "",
          "type": "uint256"
        }
      ],
      "name": "PairCreated",
      "type": "event"
    },
    {
      "inputs": [],
      "name": "INIT_CODE_HASH",
      "outputs": [
        {
          "internalType": "bytes32",
          "name": "",
          "type": "bytes32"
        }
      ],
      "stateMutability": "view",
      "type": "function"
    },
    {
      "inputs": [
        {
          "internalType": "uint256",
          "name": "",
          "type": "uint256"
        }
      ],
      "name": "allPairs",
      "outputs": [
        {
          "internalType": "address",
          "name": "",
          "type": "address"
        }
      ],
      "stateMutability": "view",
      "type": "function"
    },
    {
      "inputs": [],
      "name": "allPairsLength",
      "outputs": [
        {
          "internalType": "uint256",
          "name": "",
          "type": "uint256"
        }
      ],
      "stateMutability": "view",
      "type": "function"
    },
    {
      "inputs": [
        {
          "internalType": "address",
          "name": "tokenA",
          "type": "address"
        },
        {
          "internalType": "address",
          "name": "tokenB",
          "type": "address"
        }
      ],
      "name": "createPair",
      "outputs": [
        {
          "internalType": "address",
          "name": "pair",
          "type": "address"
        }
      ],
      "stateMutability": "nonpayable",
      "type": "function"
    },
    {
      "inputs": [],
      "name": "feeTo",
      "outputs": [
        {
          "internalType": "address",
          "name": "",
          "type": "address"
        }
      ],
      "stateMutability": "view",
      "type": "function"
    },
    {
      "inputs": [],
      "name": "feeToSetter",
      "outputs": [
        {
          "internalType": "address",
          "name": "",
          "type": "address"
        }
      ],
      "stateMutability": "view",
      "type": "function"
    },
    {
      "inputs": [
        {
          "internalType": "address",
          "name": "",
          "type": "address"
        },
        {
          "internalType": "address",
          "name": "",
          "type": "address"
        }
      ],
      "name": "getPair",
      "outputs": [
        {
          "internalType": "address",
          "name": "",
          "type": "address"
        }
      ],
      "stateMutability": "view",
      "type": "function"
    },
    {
      "inputs": [
        {
          "internalType": "address",
          "name": "_feeTo",
          "type": "address"
        }
      ],
      "name": "setFeeTo",
      "outputs": [],
      "stateMutability": "nonpayable",
      "type": "function"
    },
    {
      "inputs": [
        {
          "internalType": "address",
          "name": "_feeToSetter",
          "type": "address"
        }
      ],
      "name": "setFeeToSetter",
      "outputs": [],
      "stateMutability": "nonpayable",
      "type": "function"
    }
  ],
  "transactionHash": "0xdb23e71d44fffc32b34a7f83880640e66f384971f33598c1bd488e50a29790d4",
  "args": [
    "0xb9c92Ee112A12F3F34bfec134b5CB9109150cA94"
  ],
  "numDeployments": 1,
  "solcInputHash": "cd05289b02de52e41df524b335fedeff",
  "bytecode": "0x608060405234801561001057600080fd5b50604051612c40380380612c408339818101604052602081101561003357600080fd5b5051600180546001600160a01b0319166001600160a01b03909216919091179055612bdd806100636000396000f3fe608060405234801561001057600080fd5b50600436106100935760003560e01c8063574f2ba311610066578063574f2ba3146100fb578063a2e74af614610103578063c9c653961461012b578063e6a4390514610159578063f46901ed1461018757610093565b8063017e7e5814610098578063094b7415146100bc5780631e3dd18b146100c4578063257671f5146100e1575b600080fd5b6100a06101ad565b604080516001600160a01b039092168252519081900360200190f35b6100a06101bc565b6100a0600480360360208110156100da57600080fd5b50356101cb565b6100e96101f2565b60408051918252519081900360200190f35b6100e9610285565b6101296004803603602081101561011957600080fd5b50356001600160a01b031661028b565b005b6100a06004803603604081101561014157600080fd5b506001600160a01b0381358116916020013516610300565b6100a06004803603604081101561016f57600080fd5b506001600160a01b0381358116916020013516610625565b6101296004803603602081101561019d57600080fd5b50356001600160a01b031661064b565b6000546001600160a01b031681565b6001546001600160a01b031681565b600381815481106101d857fe5b6000918252602090912001546001600160a01b0316905081565b604051610201602082016106c0565b6020820181038252601f19601f820116604052506040516020018082805190602001908083835b602083106102475780518252601f199092019160209182019101610228565b6001836020036101000a0380198251168184511680821785525050505050509050019150506040516020818303038152906040528051906020012081565b60035490565b6001546001600160a01b031633146102de576040805162461bcd60e51b8152602060048201526011602482015270213aba3a32b91d102327a92124a22222a760791b604482015290519081900360640190fd5b600180546001600160a01b0319166001600160a01b0392909216919091179055565b6000816001600160a01b0316836001600160a01b03161415610369576040805162461bcd60e51b815260206004820152601b60248201527f4275747465723a204944454e544943414c5f4144445245535345530000000000604482015290519081900360640190fd5b600080836001600160a01b0316856001600160a01b03161061038c57838561038f565b84845b90925090506001600160a01b0382166103e6576040805162461bcd60e51b81526020600482015260146024820152734275747465723a205a45524f5f4144445245535360601b604482015290519081900360640190fd5b6001600160a01b03828116600090815260026020908152604080832085851684529091529020541615610456576040805162461bcd60e51b81526020600482015260136024820152724275747465723a20504149525f45584953545360681b604482015290519081900360640190fd5b606060405180602001610468906106c0565b6020820181038252601f19601f8201166040525090506000838360405160200180836001600160a01b03166001600160a01b031660601b8152601401826001600160a01b03166001600160a01b031660601b815260140192505050604051602081830303815290604052805190602001209050808251602084016000f56040805163485cc95560e01b81526001600160a01b038781166004830152868116602483015291519297509087169163485cc9559160448082019260009290919082900301818387803b15801561053b57600080fd5b505af115801561054f573d6000803e3d6000fd5b505050506001600160a01b0384811660008181526002602081815260408084208987168086529083528185208054978d166001600160a01b031998891681179091559383528185208686528352818520805488168517905560038054600181018255958190527fc2575a0e9e593c00f959f8c92f12db2869c3395a3b0502d05e2516446f71f85b90950180549097168417909655925483519283529082015281517f0d3648bd0f6ba80134a33ba9275ac585d9d315f0ad8355cddefde31afa28d0e9929181900390910190a35050505092915050565b60026020908152600092835260408084209091529082529020546001600160a01b031681565b6001546001600160a01b0316331461069e576040805162461bcd60e51b8152602060048201526011602482015270213aba3a32b91d102327a92124a22222a760791b604482015290519081900360640190fd5b600080546001600160a01b0319166001600160a01b0392909216919091179055565b6124da806106ce8339019056fe60a0604052600560e91b608052600160125534801561001d57600080fd5b5060405146908060526124888239604080519182900360520182208282018252600a8352692ab734b9bbb0b8102b1960b11b6020938401528151808301835260018152603160f81b908401528151808401919091527fbfcc8ef98ffbf7b6c3fec7bf5185b566b9863e35a9d83acd49ad6824b5969738818301527fc89efdaa54c0f20c7adf612882df0950f5a951637e0307cdcb4c672f298b8bc6606082015260808101949094523060a0808601919091528151808603909101815260c09094019052825192019190912060035550600580546001600160a01b0319163317905560805160e81c61236d61011b60003980611721525061236d6000f3fe608060405234801561001057600080fd5b50600436106101fb5760003560e01c80635a3d54931161011a578063ba9a7a56116100ad578063d21220a71161007c578063d21220a714610621578063d505accf14610629578063dd62ed3e1461067a578063f30dba93146106a8578063fff6cae91461071f576101fb565b8063ba9a7a56146105ca578063bc25cf77146105d2578063c45a0155146105f8578063d0c93a7c14610600576101fb565b80637ecebe00116100e95780637ecebe001461053157806389afcb441461055757806395d89b4114610596578063a9059cbb1461059e576101fb565b80635a3d5493146104d55780636a627842146104dd57806370a08231146105035780637464fc3d14610529576101fb565b806323b872dd116101925780633850c7bd116101615780633850c7bd14610445578063485cc9551461047f5780635339c296146104ad5780635909c0d5146104cd576101fb565b806323b872dd146103e157806330adf81f14610417578063313ce5671461041f5780633644e5151461043d576101fb565b80630dfe1681116101ce5780630dfe16811461039357806313bee7e8146103b757806318160ddd146103bf5780631bd15cae146103d9576101fb565b8063022c0d9f1461020057806306fdde031461028e5780630902f1ac1461030b578063095ea7b314610353575b600080fd5b61028c6004803603608081101561021657600080fd5b8135916020810135916001600160a01b03604083013516919081019060808101606082013564010000000081111561024d57600080fd5b82018360208201111561025f57600080fd5b8035906020019184600183028401116401000000008311171561028157600080fd5b509092509050610727565b005b610296610cc0565b6040805160208082528351818301528351919283929083019185019080838360005b838110156102d05781810151838201526020016102b8565b50505050905090810190601f1680156102fd5780820380516001836020036101000a031916815260200191505b509250505060405180910390f35b610313610ce6565b604080516001600160701b0396871681529486166020860152928516848401529316606083015263ffffffff909216608082015290519081900360a00190f35b61037f6004803603604081101561036957600080fd5b506001600160a01b038135169060200135610d1f565b604080519115158252519081900360200190f35b61039b610d36565b604080516001600160a01b039092168252519081900360200190f35b61039b610d45565b6103c7610d54565b60408051918252519081900360200190f35b61039b610d5a565b61037f600480360360608110156103f757600080fd5b506001600160a01b03813581169160208101359091169060400135610d69565b6103c7610e03565b610427610e27565b6040805160ff9092168252519081900360200190f35b6103c7610e2c565b61044d610e32565b604080516001600160a01b039094168452600292830b830b602085015290820b90910b82820152519081900360600190f35b61028c6004803603604081101561049557600080fd5b506001600160a01b0381358116916020013516610e59565b6103c7600480360360208110156104c357600080fd5b503560010b610eda565b6103c7610eec565b6103c7610ef2565b6103c7600480360360208110156104f357600080fd5b50356001600160a01b0316610ef8565b6103c76004803603602081101561051957600080fd5b50356001600160a01b03166111cd565b6103c76111df565b6103c76004803603602081101561054757600080fd5b50356001600160a01b03166111e5565b61057d6004803603602081101561056d57600080fd5b50356001600160a01b03166111f7565b6040805192835260208301919091528051918290030190f35b610296611573565b61037f600480360360408110156105b457600080fd5b506001600160a01b038135169060200135611595565b6103c76115a2565b61028c600480360360208110156105e857600080fd5b50356001600160a01b03166115a8565b61039b611710565b61060861171f565b60408051600292830b90920b8252519081900360200190f35b61039b611743565b61028c600480360360e081101561063f57600080fd5b506001600160a01b03813581169160208101359091169060408101359060608101359060ff6080820135169060a08101359060c00135611752565b6103c76004803603604081101561069057600080fd5b506001600160a01b0381358116916020013516611951565b6106c8600480360360208110156106be57600080fd5b503560020b61196e565b604080516001600160801b039097168752600f95860b90950b6020870152600693840b90930b858501526001600160a01b03909116606085015263ffffffff166080840152151560a0830152519081900360c00190f35b61028c6119d0565b60125460011461076f576040805162461bcd60e51b815260206004820152600e60248201526d109d5d1d195c8e881313d0d2d15160921b604482015290519081900360640190fd5b6000601255841515806107825750600084115b6107bd5760405162461bcd60e51b81526004018080602001828103825260228152602001806122d06022913960400191505060405180910390fd5b6000851180156107cd5750600084115b1561081f576040805162461bcd60e51b815260206004820152601d60248201527f4275747465723a20494e56414c49445f4f55545055545f414d4f554e54000000604482015290519081900360640190fd5b610827611b3e565b600080600080610835610ce6565b50600654600754949850929650909450925060009182916001600160a01b03908116918116908b16821480159061087e5750806001600160a01b03168b6001600160a01b031614155b6108c4576040805162461bcd60e51b81526020600482015260126024820152714275747465723a20494e56414c49445f544f60701b604482015290519081900360640190fd5b604080516370a0823160e01b815230600482015290516001600160a01b038416916370a08231916024808301926020929190829003018186803b15801561090a57600080fd5b505afa15801561091e573d6000803e3d6000fd5b505050506040513d602081101561093457600080fd5b5051604080516370a0823160e01b815230600482015290519195506001600160a01b038316916370a0823191602480820192602092909190829003018186803b15801561098057600080fd5b505afa158015610994573d6000803e3d6000fd5b505050506040513d60208110156109aa57600080fd5b5051925060009150506001600160701b038786011683116109cc5760006109db565b8487016001600160701b031683035b905060008487016001600160701b031683116109f8576000610a07565b8487016001600160701b031683035b90506001600160701b038211801590610a2757506001600160701b038111155b610a6b576040805162461bcd60e51b815260206004820152601060248201526f4275747465723a204f564552464c4f5760801b604482015290519081900360640190fd5b948101949384019381151580610a815750600081115b610abc5760405162461bcd60e51b81526004018080602001828103825260218152602001806122f26021913960400191505060405180910390fd5b600082118015610acc5750600081115b15610b1e576040805162461bcd60e51b815260206004820152601c60248201527f4275747465723a20494e56414c49445f494e5055545f414d4f554e5400000000604482015290519081900360640190fd5b8115610bba57600860009054906101000a90046001600160a01b03166001600160a01b031663156e29f68c8e856040518463ffffffff1660e01b815260040180846001600160a01b03166001600160a01b031681526020018381526020018281526020019350505050600060405180830381600087803b158015610ba157600080fd5b505af1158015610bb5573d6000803e3d6000fd5b505050505b8015610c5657600960009054906101000a90046001600160a01b03166001600160a01b031663156e29f68c8f846040518463ffffffff1660e01b815260040180846001600160a01b03166001600160a01b031681526020018381526020018281526020019350505050600060405180830381600087803b158015610c3d57600080fd5b505af1158015610c51573d6000803e3d6000fd5b505050505b610c6484848a8a8a8a611b40565b604080518381526020810183905281516001600160a01b038e169233927ff23f60e23299b2400e85cb44a55b4a9d9fb4dddc55266b0dc7109763cb57aef6929081900390910190a3505060016012555050505050505050505050565b6040518060400160405280600a8152602001692ab734b9bbb0b8102b1960b11b81525081565b600a54600b546001600160701b0380831693600160701b938490048216938284169390810490921691600160e01b900463ffffffff1690565b6000610d2c338484611d1d565b5060015b92915050565b6006546001600160a01b031681565b6009546001600160a01b031681565b60005481565b6008546001600160a01b031681565b6001600160a01b038316600090815260026020908152604080832033845290915281205460001914610dee576001600160a01b0384166000908152600260209081526040808320338452909152902054610dc9908363ffffffff611d7f16565b6001600160a01b03851660009081526002602090815260408083203384529091529020555b610df9848484611dcf565b5060019392505050565b7f6e71edae12b1b97f4d1f60370fef10105fa2faae0126114a169c64845d6126c981565b601281565b60035481565b600f546001600160a01b03811690600160a01b8104600290810b91600160b81b9004900b83565b6005546001600160a01b03163314610eac576040805162461bcd60e51b8152602060048201526011602482015270213aba3a32b91d102327a92124a22222a760791b604482015290519081900360640190fd5b600680546001600160a01b039384166001600160a01b03199182161790915560078054929093169116179055565b60116020526000908152604090205481565b600c5481565b600d5481565b6000601254600114610f42576040805162461bcd60e51b815260206004820152600e60248201526d109d5d1d195c8e881313d0d2d15160921b604482015290519081900360640190fd5b60006012819055808080610f54610ce6565b50600654604080516370a0823160e01b8152306004820152905195995093975091955093506000926001600160a01b03909116916370a08231916024808301926020929190829003018186803b158015610fad57600080fd5b505afa158015610fc1573d6000803e3d6000fd5b505050506040513d6020811015610fd757600080fd5b5051600754604080516370a0823160e01b815230600482015290519293506000926001600160a01b03909216916370a0823191602480820192602092909190829003018186803b15801561102a57600080fd5b505afa15801561103e573d6000803e3d6000fd5b505050506040513d602081101561105457600080fd5b505190506000611073836001600160701b03891663ffffffff611d7f16565b90506000611090836001600160701b03891663ffffffff611d7f16565b600054909150806110d9576110c56103e86110b96110b4868663ffffffff611e8916565b611eec565b9063ffffffff611d7f16565b99506110d460006103e8611f3e565b611128565b6111256001600160701b038a166110f6858463ffffffff611e8916565b816110fd57fe5b046001600160701b038a16611118858563ffffffff611e8916565b8161111f57fe5b04611fd4565b99505b60008a116111675760405162461bcd60e51b81526004018080602001828103825260258152602001806122ab6025913960400191505060405180910390fd5b6111718b8b611f3e565b61117f85858b8b8b8b611b40565b6040805184815260208101849052815133927f4c209b5fc8ad50758f13e2e1088ba56a560dff690a1c6fef26394f4c03821c4f928290030190a2505060016012555095979650505050505050565b60016020526000908152604090205481565b600e5481565b60046020526000908152604090205481565b600080601254600114611242576040805162461bcd60e51b815260206004820152600e60248201526d109d5d1d195c8e881313d0d2d15160921b604482015290519081900360640190fd5b60006012819055808080611254610ce6565b50600654600754604080516370a0823160e01b81523060048201529051969a509498509296509094506001600160a01b039081169391169160009184916370a08231916024808301926020929190829003018186803b1580156112b657600080fd5b505afa1580156112ca573d6000803e3d6000fd5b505050506040513d60208110156112e057600080fd5b5051604080516370a0823160e01b815230600482015290519192506000916001600160a01b038516916370a08231916024808301926020929190829003018186803b15801561132e57600080fd5b505afa158015611342573d6000803e3d6000fd5b505050506040513d602081101561135857600080fd5b50513060009081526001602052604081205490549192509080611381838663ffffffff611e8916565b8161138857fe5b049b508061139c838563ffffffff611e8916565b816113a357fe5b049a5060008c1180156113b6575060008b115b6113f15760405162461bcd60e51b81526004018080602001828103825260258152602001806123136025913960400191505060405180910390fd5b6113fb3083611fec565b611406868e8e61208a565b611411858e8d61208a565b604080516370a0823160e01b815230600482015290516001600160a01b038816916370a08231916024808301926020929190829003018186803b15801561145757600080fd5b505afa15801561146b573d6000803e3d6000fd5b505050506040513d602081101561148157600080fd5b5051604080516370a0823160e01b815230600482015290519195506001600160a01b038716916370a0823191602480820192602092909190829003018186803b1580156114cd57600080fd5b505afa1580156114e1573d6000803e3d6000fd5b505050506040513d60208110156114f757600080fd5b5051925061150984848c8c8c8c611b40565b8c6001600160a01b0316336001600160a01b03167fdccd412f0b1252819cb1fd330b93224ca42612892bb3f4f789976e6d819364968e8e604051808381526020018281526020019250505060405180910390a3505050505050505050506001601281905550915091565b604051806040016040528060068152602001652aa72496ab1960d11b81525081565b6000610d2c338484611dcf565b6103e881565b6012546001146115f0576040805162461bcd60e51b815260206004820152600e60248201526d109d5d1d195c8e881313d0d2d15160921b604482015290519081900360640190fd5b6000601255600654600754600a54604080516370a0823160e01b815230600482015290516001600160a01b03948516949093169261169f928592879261169a926001600160701b03169185916370a0823191602480820192602092909190829003018186803b15801561166257600080fd5b505afa158015611676573d6000803e3d6000fd5b505050506040513d602081101561168c57600080fd5b50519063ffffffff611d7f16565b61208a565b600a54604080516370a0823160e01b81523060048201529051611706928492879261169a92600160701b90046001600160701b0316916001600160a01b038616916370a0823191602480820192602092909190829003018186803b15801561166257600080fd5b5050600160125550565b6005546001600160a01b031681565b7f000000000000000000000000000000000000000000000000000000000000000081565b6007546001600160a01b031681565b42841015611799576040805162461bcd60e51b815260206004820152600f60248201526e109d5d1d195c8e8811561412549151608a1b604482015290519081900360640190fd5b6003546001600160a01b0380891660008181526004602090815260408083208054600180820190925582517f6e71edae12b1b97f4d1f60370fef10105fa2faae0126114a169c64845d6126c98186015280840196909652958d166060860152608085018c905260a085019590955260c08085018b90528151808603909101815260e08501825280519083012061190160f01b6101008601526101028501969096526101228085019690965280518085039096018652610142840180825286519683019690962095839052610162840180825286905260ff89166101828501526101a284018890526101c28401879052519193926101e280820193601f1981019281900390910190855afa1580156118b4573d6000803e3d6000fd5b5050604051601f1901519150506001600160a01b038116158015906118ea5750886001600160a01b0316816001600160a01b0316145b61193b576040805162461bcd60e51b815260206004820152601960248201527f4275747465723a20494e56414c49445f5349474e415455524500000000000000604482015290519081900360640190fd5b611946898989611d1d565b505050505050505050565b600260209081526000928352604080842090915290825290205481565b601060205260009081526040902080546001909101546001600160801b03821691600160801b9004600f0b90600681900b9067010000000000000081046001600160a01b031690600160d81b810463ffffffff1690600160f81b900460ff1686565b601254600114611a18576040805162461bcd60e51b815260206004820152600e60248201526d109d5d1d195c8e881313d0d2d15160921b604482015290519081900360640190fd5b6000601255600654604080516370a0823160e01b81523060048201529051611b37926001600160a01b0316916370a08231916024808301926020929190829003018186803b158015611a6957600080fd5b505afa158015611a7d573d6000803e3d6000fd5b505050506040513d6020811015611a9357600080fd5b5051600754604080516370a0823160e01b815230600482015290516001600160a01b03909216916370a0823191602480820192602092909190829003018186803b158015611ae057600080fd5b505afa158015611af4573d6000803e3d6000fd5b505050506040513d6020811015611b0a57600080fd5b5051600a54600b546001600160701b0380831692600160701b908190048216928083169291900416611b40565b6001601255565b565b6001600160701b038611801590611b5e57506001600160701b038511155b611ba2576040805162461bcd60e51b815260206004820152601060248201526f4275747465723a204f564552464c4f5760801b604482015290519081900360640190fd5b600b5463ffffffff42811691600160e01b90048116820390811615801590611bd257506001600160701b03861615155b8015611be657506001600160701b03851615155b15611c57578063ffffffff16611c1487611bff88612224565b6001600160e01b03169063ffffffff61223616565b600c80546001600160e01b03929092169290920201905563ffffffff8116611c3f86611bff89612224565b600d80546001600160e01b0392909216929092020190555b600a80546dffffffffffffffffffffffffffff199081166001600160701b038b8116919091176dffffffffffffffffffffffffffff60701b19908116600160701b8c841681029190911794859055600b8054909416898416179091168783168202176001600160e01b0316600160e01b63ffffffff881602179092556040805184831681529290930416602082015281517f1c411e9a96e071241c2f21f7726b17ae89e3cab4c78be50e062b03a9fffbbad1929181900390910190a15050505050505050565b6001600160a01b03808416600081815260026020908152604080832094871680845294825291829020859055815185815291517f8c5be1e5ebec7d5bd14f71427d1e84f3dd0314c0f7b2291e5b200ac8c7c3b9259281900390910190a3505050565b80820382811115610d30576040805162461bcd60e51b815260206004820152601560248201527464732d6d6174682d7375622d756e646572666c6f7760581b604482015290519081900360640190fd5b6001600160a01b038316600090815260016020526040902054611df8908263ffffffff611d7f16565b6001600160a01b038085166000908152600160205260408082209390935590841681522054611e2d908263ffffffff61225b16565b6001600160a01b0380841660008181526001602090815260409182902094909455805185815290519193928716927fddf252ad1be2c89b69c2b068fc378daa952ba7f163c4a11628f55a4df523b3ef92918290030190a3505050565b6000811580611ea457505080820282828281611ea157fe5b04145b610d30576040805162461bcd60e51b815260206004820152601460248201527364732d6d6174682d6d756c2d6f766572666c6f7760601b604482015290519081900360640190fd5b60006003821115611f2f575080600160028204015b81811015611f2957809150600281828581611f1857fe5b040181611f2157fe5b049050611f01565b50611f39565b8115611f39575060015b919050565b600054611f51908263ffffffff61225b16565b60009081556001600160a01b038316815260016020526040902054611f7c908263ffffffff61225b16565b6001600160a01b03831660008181526001602090815260408083209490945583518581529351929391927fddf252ad1be2c89b69c2b068fc378daa952ba7f163c4a11628f55a4df523b3ef9281900390910190a35050565b6000818310611fe35781611fe5565b825b9392505050565b6001600160a01b038216600090815260016020526040902054612015908263ffffffff611d7f16565b6001600160a01b03831660009081526001602052604081209190915554612042908263ffffffff611d7f16565b60009081556040805183815290516001600160a01b038516917fddf252ad1be2c89b69c2b068fc378daa952ba7f163c4a11628f55a4df523b3ef919081900360200190a35050565b604080518082018252601981527f7472616e7366657228616464726573732c75696e74323536290000000000000060209182015281516001600160a01b0385811660248301526044808301869052845180840390910181526064909201845291810180516001600160e01b031663a9059cbb60e01b1781529251815160009460609489169392918291908083835b602083106121375780518252601f199092019160209182019101612118565b6001836020036101000a0380198251168184511680821785525050505050509050019150506000604051808303816000865af19150503d8060008114612199576040519150601f19603f3d011682016040523d82523d6000602084013e61219e565b606091505b50915091508180156121cc5750805115806121cc57508080602001905160208110156121c957600080fd5b50515b61221d576040805162461bcd60e51b815260206004820152601760248201527f4275747465723a205452414e534645525f4641494c4544000000000000000000604482015290519081900360640190fd5b5050505050565b6001600160701b0316600160701b0290565b60006001600160701b0382166001600160e01b0384168161225357fe5b049392505050565b80820182811015610d30576040805162461bcd60e51b815260206004820152601460248201527364732d6d6174682d6164642d6f766572666c6f7760601b604482015290519081900360640190fdfe4275747465723a20494e53554646494349454e545f4c49515549444954595f4d494e5445444275747465723a20494e53554646494349454e545f4f55545055545f414d4f554e544275747465723a20494e53554646494349454e545f494e5055545f414d4f554e544275747465723a20494e53554646494349454e545f4c49515549444954595f4255524e4544a2646970667358221220ff6ad459a31678507153c70a143f46ebaaccf7cbfc91e674503500c88d23467664736f6c63430006060033454950373132446f6d61696e28737472696e67206e616d652c737472696e672076657273696f6e2c75696e7432353620636861696e49642c6164647265737320766572696679696e67436f6e747261637429a26469706673582212208f69fc7f009be33d6d714185f79b1dd83b92e65c10ca03f1f7e8d4761b693f4a64736f6c63430006060033",
  "devdoc": {
    "methods": {}
  },
  "userdoc": {
    "methods": {}
  },
  "storageLayout": {
    "storage": [
      {
        "astId": 2036,
        "contract": "contracts/ButterFactory.sol:ButterFactory",
        "label": "feeTo",
        "offset": 0,
        "slot": "0",
        "type": "t_address"
      },
      {
        "astId": 2039,
        "contract": "contracts/ButterFactory.sol:ButterFactory",
        "label": "feeToSetter",
        "offset": 0,
        "slot": "1",
        "type": "t_address"
      },
      {
        "astId": 2057,
        "contract": "contracts/ButterFactory.sol:ButterFactory",
        "label": "getPair",
        "offset": 0,
        "slot": "2",
        "type": "t_mapping(t_address,t_mapping(t_address,t_address))"
      },
      {
        "astId": 2061,
        "contract": "contracts/ButterFactory.sol:ButterFactory",
        "label": "allPairs",
        "offset": 0,
        "slot": "3",
        "type": "t_array(t_address)dyn_storage"
      }
    ],
    "types": {
      "t_address": {
        "encoding": "inplace",
        "label": "address",
        "numberOfBytes": "20"
      },
      "t_array(t_address)dyn_storage": {
        "base": "t_address",
        "encoding": "dynamic_array",
        "label": "address[]",
        "numberOfBytes": "32"
      },
      "t_mapping(t_address,t_address)": {
        "encoding": "mapping",
        "key": "t_address",
        "label": "mapping(address => address)",
        "numberOfBytes": "32",
        "value": "t_address"
      },
      "t_mapping(t_address,t_mapping(t_address,t_address))": {
        "encoding": "mapping",
        "key": "t_address",
        "label": "mapping(address => mapping(address => address))",
        "numberOfBytes": "32",
        "value": "t_mapping(t_address,t_address)"
      }
    }
  }
}