{
  "address": "0x4e5d17Ffb64f844fC19A6d1208F962F46C1658E0",
  "abi": [
    {
      "inputs": [
        {
          "internalType": "address",
          "name": "_factory",
          "type": "address"
        },
        {
          "internalType": "address",
          "name": "_WETH",
          "type": "address"
        }
      ],
      "stateMutability": "nonpayable",
      "type": "constructor"
    },
    {
      "inputs": [],
      "name": "WETH",
      "outputs": [
        {
          "internalType": "address",
          "name": "",
          "type": "address"
        }
      ],
      "stateMutability": "view",
      "type": "function"
    },
    {
      "inputs": [
        {
          "internalType": "address",
          "name": "tokenA",
          "type": "address"
        },
        {
          "internalType": "address",
          "name": "tokenB",
          "type": "address"
        },
        {
          "internalType": "uint256",
          "name": "amountADesired",
          "type": "uint256"
        },
        {
          "internalType": "uint256",
          "name": "amountBDesired",
          "type": "uint256"
        },
        {
          "internalType": "uint256",
          "name": "amountAMin",
          "type": "uint256"
        },
        {
          "internalType": "uint256",
          "name": "amountBMin",
          "type": "uint256"
        },
        {
          "internalType": "address",
          "name": "to",
          "type": "address"
        },
        {
          "internalType": "uint256",
          "name": "deadline",
          "type": "uint256"
        }
      ],
      "name": "addLiquidity",
      "outputs": [
        {
          "internalType": "uint256",
          "name": "amountA",
          "type": "uint256"
        },
        {
          "internalType": "uint256",
          "name": "amountB",
          "type": "uint256"
        },
        {
          "internalType": "uint256",
          "name": "liquidity",
          "type": "uint256"
        }
      ],
      "stateMutability": "nonpayable",
      "type": "function"
    },
    {
      "inputs": [
        {
          "internalType": "address",
          "name": "token",
          "type": "address"
        },
        {
          "internalType": "uint256",
          "name": "amountTokenDesired",
          "type": "uint256"
        },
        {
          "internalType": "uint256",
          "name": "amountTokenMin",
          "type": "uint256"
        },
        {
          "internalType": "uint256",
          "name": "amountETHMin",
          "type": "uint256"
        },
        {
          "internalType": "address",
          "name": "to",
          "type": "address"
        },
        {
          "internalType": "uint256",
          "name": "deadline",
          "type": "uint256"
        }
      ],
      "name": "addLiquidityETH",
      "outputs": [
        {
          "internalType": "uint256",
          "name": "amountToken",
          "type": "uint256"
        },
        {
          "internalType": "uint256",
          "name": "amountETH",
          "type": "uint256"
        },
        {
          "internalType": "uint256",
          "name": "liquidity",
          "type": "uint256"
        }
      ],
      "stateMutability": "payable",
      "type": "function"
    },
    {
      "inputs": [],
      "name": "factory",
      "outputs": [
        {
          "internalType": "address",
          "name": "",
          "type": "address"
        }
      ],
      "stateMutability": "view",
      "type": "function"
    },
    {
      "inputs": [
        {
          "internalType": "uint256",
          "name": "amountOut",
          "type": "uint256"
        },
        {
          "internalType": "uint256",
          "name": "reserveIn",
          "type": "uint256"
        },
        {
          "internalType": "uint256",
          "name": "reserveOut",
          "type": "uint256"
        }
      ],
      "name": "getAmountIn",
      "outputs": [
        {
          "internalType": "uint256",
          "name": "amountIn",
          "type": "uint256"
        }
      ],
      "stateMutability": "pure",
      "type": "function"
    },
    {
      "inputs": [
        {
          "internalType": "uint256",
          "name": "amountIn",
          "type": "uint256"
        },
        {
          "internalType": "uint256",
          "name": "reserveIn",
          "type": "uint256"
        },
        {
          "internalType": "uint256",
          "name": "reserveOut",
          "type": "uint256"
        }
      ],
      "name": "getAmountOut",
      "outputs": [
        {
          "internalType": "uint256",
          "name": "amountOut",
          "type": "uint256"
        }
      ],
      "stateMutability": "pure",
      "type": "function"
    },
    {
      "inputs": [
        {
          "internalType": "uint256",
          "name": "amountOut",
          "type": "uint256"
        },
        {
          "internalType": "address[]",
          "name": "path",
          "type": "address[]"
        }
      ],
      "name": "getAmountsIn",
      "outputs": [
        {
          "internalType": "uint256[]",
          "name": "amounts",
          "type": "uint256[]"
        }
      ],
      "stateMutability": "view",
      "type": "function"
    },
    {
      "inputs": [
        {
          "internalType": "uint256",
          "name": "amountIn",
          "type": "uint256"
        },
        {
          "internalType": "address[]",
          "name": "path",
          "type": "address[]"
        }
      ],
      "name": "getAmountsOut",
      "outputs": [
        {
          "internalType": "uint256[]",
          "name": "amounts",
          "type": "uint256[]"
        }
      ],
      "stateMutability": "view",
      "type": "function"
    },
    {
      "inputs": [
        {
          "internalType": "uint256",
          "name": "amountA",
          "type": "uint256"
        },
        {
          "internalType": "uint256",
          "name": "reserveA",
          "type": "uint256"
        },
        {
          "internalType": "uint256",
          "name": "reserveB",
          "type": "uint256"
        }
      ],
      "name": "quote",
      "outputs": [
        {
          "internalType": "uint256",
          "name": "amountB",
          "type": "uint256"
        }
      ],
      "stateMutability": "pure",
      "type": "function"
    },
    {
      "inputs": [
        {
          "internalType": "address",
          "name": "tokenA",
          "type": "address"
        },
        {
          "internalType": "address",
          "name": "tokenB",
          "type": "address"
        },
        {
          "internalType": "uint256",
          "name": "liquidity",
          "type": "uint256"
        },
        {
          "internalType": "uint256",
          "name": "amountAMin",
          "type": "uint256"
        },
        {
          "internalType": "uint256",
          "name": "amountBMin",
          "type": "uint256"
        },
        {
          "internalType": "address",
          "name": "to",
          "type": "address"
        },
        {
          "internalType": "uint256",
          "name": "deadline",
          "type": "uint256"
        }
      ],
      "name": "removeLiquidity",
      "outputs": [
        {
          "internalType": "uint256",
          "name": "amountA",
          "type": "uint256"
        },
        {
          "internalType": "uint256",
          "name": "amountB",
          "type": "uint256"
        }
      ],
      "stateMutability": "nonpayable",
      "type": "function"
    },
    {
      "inputs": [
        {
          "internalType": "address",
          "name": "token",
          "type": "address"
        },
        {
          "internalType": "uint256",
          "name": "liquidity",
          "type": "uint256"
        },
        {
          "internalType": "uint256",
          "name": "amountTokenMin",
          "type": "uint256"
        },
        {
          "internalType": "uint256",
          "name": "amountETHMin",
          "type": "uint256"
        },
        {
          "internalType": "address",
          "name": "to",
          "type": "address"
        },
        {
          "internalType": "uint256",
          "name": "deadline",
          "type": "uint256"
        }
      ],
      "name": "removeLiquidityETH",
      "outputs": [
        {
          "internalType": "uint256",
          "name": "amountToken",
          "type": "uint256"
        },
        {
          "internalType": "uint256",
          "name": "amountETH",
          "type": "uint256"
        }
      ],
      "stateMutability": "nonpayable",
      "type": "function"
    },
    {
      "inputs": [
        {
          "internalType": "address",
          "name": "token",
          "type": "address"
        },
        {
          "internalType": "uint256",
          "name": "liquidity",
          "type": "uint256"
        },
        {
          "internalType": "uint256",
          "name": "amountTokenMin",
          "type": "uint256"
        },
        {
          "internalType": "uint256",
          "name": "amountETHMin",
          "type": "uint256"
        },
        {
          "internalType": "address",
          "name": "to",
          "type": "address"
        },
        {
          "internalType": "uint256",
          "name": "deadline",
          "type": "uint256"
        }
      ],
      "name": "removeLiquidityETHSupportingFeeOnTransferTokens",
      "outputs": [
        {
          "internalType": "uint256",
          "name": "amountETH",
          "type": "uint256"
        }
      ],
      "stateMutability": "nonpayable",
      "type": "function"
    },
    {
      "inputs": [
        {
          "internalType": "address",
          "name": "token",
          "type": "address"
        },
        {
          "internalType": "uint256",
          "name": "liquidity",
          "type": "uint256"
        },
        {
          "internalType": "uint256",
          "name": "amountTokenMin",
          "type": "uint256"
        },
        {
          "internalType": "uint256",
          "name": "amountETHMin",
          "type": "uint256"
        },
        {
          "internalType": "address",
          "name": "to",
          "type": "address"
        },
        {
          "internalType": "uint256",
          "name": "deadline",
          "type": "uint256"
        },
        {
          "internalType": "bool",
          "name": "approveMax",
          "type": "bool"
        },
        {
          "internalType": "uint8",
          "name": "v",
          "type": "uint8"
        },
        {
          "internalType": "bytes32",
          "name": "r",
          "type": "bytes32"
        },
        {
          "internalType": "bytes32",
          "name": "s",
          "type": "bytes32"
        }
      ],
      "name": "removeLiquidityETHWithPermit",
      "outputs": [
        {
          "internalType": "uint256",
          "name": "amountToken",
          "type": "uint256"
        },
        {
          "internalType": "uint256",
          "name": "amountETH",
          "type": "uint256"
        }
      ],
      "stateMutability": "nonpayable",
      "type": "function"
    },
    {
      "inputs": [
        {
          "internalType": "address",
          "name": "token",
          "type": "address"
        },
        {
          "internalType": "uint256",
          "name": "liquidity",
          "type": "uint256"
        },
        {
          "internalType": "uint256",
          "name": "amountTokenMin",
          "type": "uint256"
        },
        {
          "internalType": "uint256",
          "name": "amountETHMin",
          "type": "uint256"
        },
        {
          "internalType": "address",
          "name": "to",
          "type": "address"
        },
        {
          "internalType": "uint256",
          "name": "deadline",
          "type": "uint256"
        },
        {
          "internalType": "bool",
          "name": "approveMax",
          "type": "bool"
        },
        {
          "internalType": "uint8",
          "name": "v",
          "type": "uint8"
        },
        {
          "internalType": "bytes32",
          "name": "r",
          "type": "bytes32"
        },
        {
          "internalType": "bytes32",
          "name": "s",
          "type": "bytes32"
        }
      ],
      "name": "removeLiquidityETHWithPermitSupportingFeeOnTransferTokens",
      "outputs": [
        {
          "internalType": "uint256",
          "name": "amountETH",
          "type": "uint256"
        }
      ],
      "stateMutability": "nonpayable",
      "type": "function"
    },
    {
      "inputs": [
        {
          "internalType": "address",
          "name": "tokenA",
          "type": "address"
        },
        {
          "internalType": "address",
          "name": "tokenB",
          "type": "address"
        },
        {
          "internalType": "uint256",
          "name": "liquidity",
          "type": "uint256"
        },
        {
          "internalType": "uint256",
          "name": "amountAMin",
          "type": "uint256"
        },
        {
          "internalType": "uint256",
          "name": "amountBMin",
          "type": "uint256"
        },
        {
          "internalType": "address",
          "name": "to",
          "type": "address"
        },
        {
          "internalType": "uint256",
          "name": "deadline",
          "type": "uint256"
        },
        {
          "internalType": "bool",
          "name": "approveMax",
          "type": "bool"
        },
        {
          "internalType": "uint8",
          "name": "v",
          "type": "uint8"
        },
        {
          "internalType": "bytes32",
          "name": "r",
          "type": "bytes32"
        },
        {
          "internalType": "bytes32",
          "name": "s",
          "type": "bytes32"
        }
      ],
      "name": "removeLiquidityWithPermit",
      "outputs": [
        {
          "internalType": "uint256",
          "name": "amountA",
          "type": "uint256"
        },
        {
          "internalType": "uint256",
          "name": "amountB",
          "type": "uint256"
        }
      ],
      "stateMutability": "nonpayable",
      "type": "function"
    },
    {
      "inputs": [
        {
          "internalType": "uint256",
          "name": "amountOutMin",
          "type": "uint256"
        },
        {
          "internalType": "address[]",
          "name": "path",
          "type": "address[]"
        },
        {
          "internalType": "address",
          "name": "to",
          "type": "address"
        },
        {
          "internalType": "uint256",
          "name": "deadline",
          "type": "uint256"
        }
      ],
      "name": "swapExactETHForTokens",
      "outputs": [
        {
          "internalType": "uint256[]",
          "name": "amounts",
          "type": "uint256[]"
        }
      ],
      "stateMutability": "payable",
      "type": "function"
    },
    {
      "inputs": [
        {
          "internalType": "uint256",
          "name": "amountIn",
          "type": "uint256"
        },
        {
          "internalType": "uint256",
          "name": "amountOutMin",
          "type": "uint256"
        },
        {
          "internalType": "address[]",
          "name": "path",
          "type": "address[]"
        },
        {
          "internalType": "address",
          "name": "to",
          "type": "address"
        },
        {
          "internalType": "uint256",
          "name": "deadline",
          "type": "uint256"
        }
      ],
      "name": "swapExactTokensForETH",
      "outputs": [
        {
          "internalType": "uint256[]",
          "name": "amounts",
          "type": "uint256[]"
        }
      ],
      "stateMutability": "nonpayable",
      "type": "function"
    },
    {
      "inputs": [
        {
          "internalType": "uint256",
          "name": "amountIn",
          "type": "uint256"
        },
        {
          "internalType": "uint256",
          "name": "amountOutMin",
          "type": "uint256"
        },
        {
          "internalType": "address[]",
          "name": "path",
          "type": "address[]"
        },
        {
          "internalType": "address",
          "name": "to",
          "type": "address"
        },
        {
          "internalType": "uint256",
          "name": "deadline",
          "type": "uint256"
        }
      ],
      "name": "swapExactTokensForTokens",
      "outputs": [
        {
          "internalType": "uint256[]",
          "name": "amounts",
          "type": "uint256[]"
        }
      ],
      "stateMutability": "nonpayable",
      "type": "function"
    },
    {
      "stateMutability": "payable",
      "type": "receive"
    }
  ],
  "transactionHash": "0xd4ef2235ab7f1f6ebc0f1a76c23582ade2e141f73a86f964119780124a706385",
  "args": [
    "0x04Bc70Bf89eF7af019fc2bFD0f1e7b2B0Fd25788",
    "0xf3CD5A5a6bcC3D1Db11191ab121fE9022013F22f"
  ],
  "numDeployments": 1,
  "solcInputHash": "126d9c5af6df5bf0346f836cab0e2769",
  "bytecode": "0x60c060405234801561001057600080fd5b506040516131d03803806131d08339818101604052604081101561003357600080fd5b5080516020909101516001600160601b0319606092831b8116608052911b1660a05260805160601c60a05160601c6130a86101286000398061011d5280610942528061097d5280610a745280610ca452806110085280611134528061128c5280611314528061147d52806114f852806115a752806118ee5280611b615280611bb75280611beb5280611c5f525080610b145280610beb5280610d6a5280610da35280610ede5280610fe652806111d95280611346528061167b5280611873528061189c52806118cc5280611a395280611b95528061250b528061254e5280612a855280612b335280612bb352506130a86000f3fe60806040526004361061010d5760003560e01c8063ad5c464811610095578063c45a015511610064578063c45a0155146106f2578063d06ca61f14610707578063ded9382a146107bc578063e8e337001461082f578063f305d719146108af57610146565b8063ad5c4648146105db578063ad615dec1461060c578063af2979eb14610642578063baa2abde1461069557610146565b80632195995c116100dc5780632195995c1461039a57806338ed1739146104185780635b0d5984146104ae5780637ff36ab51461052157806385f8c259146105a557610146565b806302751cec1461014b578063054d50d4146101b757806318cbafe5146101ff5780631f00ca74146102e557610146565b3661014657336001600160a01b037f0000000000000000000000000000000000000000000000000000000000000000161461014457fe5b005b600080fd5b34801561015757600080fd5b5061019e600480360360c081101561016e57600080fd5b506001600160a01b0381358116916020810135916040820135916060810135916080820135169060a001356108f5565b6040805192835260208301919091528051918290030190f35b3480156101c357600080fd5b506101ed600480360360608110156101da57600080fd5b5080359060208101359060400135610a0f565b60408051918252519081900360200190f35b34801561020b57600080fd5b50610295600480360360a081101561022257600080fd5b813591602081013591810190606081016040820135600160201b81111561024857600080fd5b82018360208201111561025a57600080fd5b803590602001918460208302840111600160201b8311171561027b57600080fd5b91935091506001600160a01b038135169060200135610a24565b60408051602080825283518183015283519192839290830191858101910280838360005b838110156102d15781810151838201526020016102b9565b505050509050019250505060405180910390f35b3480156102f157600080fd5b506102956004803603604081101561030857600080fd5b81359190810190604081016020820135600160201b81111561032957600080fd5b82018360208201111561033b57600080fd5b803590602001918460208302840111600160201b8311171561035c57600080fd5b919080806020026020016040519081016040528093929190818152602001838360200280828437600092019190915250929550610d63945050505050565b3480156103a657600080fd5b5061019e60048036036101608110156103be57600080fd5b506001600160a01b038135811691602081013582169160408201359160608101359160808201359160a08101359091169060c08101359060e081013515159060ff6101008201351690610120810135906101400135610d99565b34801561042457600080fd5b50610295600480360360a081101561043b57600080fd5b813591602081013591810190606081016040820135600160201b81111561046157600080fd5b82018360208201111561047357600080fd5b803590602001918460208302840111600160201b8311171561049457600080fd5b91935091506001600160a01b038135169060200135610e93565b3480156104ba57600080fd5b506101ed60048036036101408110156104d257600080fd5b506001600160a01b0381358116916020810135916040820135916060810135916080820135169060a08101359060c081013515159060ff60e08201351690610100810135906101200135610fde565b6102956004803603608081101561053757600080fd5b81359190810190604081016020820135600160201b81111561055857600080fd5b82018360208201111561056a57600080fd5b803590602001918460208302840111600160201b8311171561058b57600080fd5b91935091506001600160a01b0381351690602001356110ec565b3480156105b157600080fd5b506101ed600480360360608110156105c857600080fd5b508035906020810135906040013561146e565b3480156105e757600080fd5b506105f061147b565b604080516001600160a01b039092168252519081900360200190f35b34801561061857600080fd5b506101ed6004803603606081101561062f57600080fd5b508035906020810135906040013561149f565b34801561064e57600080fd5b506101ed600480360360c081101561066557600080fd5b506001600160a01b0381358116916020810135916040820135916060810135916080820135169060a001356114ac565b3480156106a157600080fd5b5061019e600480360360e08110156106b857600080fd5b506001600160a01b038135811691602081013582169160408201359160608101359160808201359160a08101359091169060c0013561162d565b3480156106fe57600080fd5b506105f0611871565b34801561071357600080fd5b506102956004803603604081101561072a57600080fd5b81359190810190604081016020820135600160201b81111561074b57600080fd5b82018360208201111561075d57600080fd5b803590602001918460208302840111600160201b8311171561077e57600080fd5b919080806020026020016040519081016040528093929190818152602001838360200280828437600092019190915250929550611895945050505050565b3480156107c857600080fd5b5061019e60048036036101408110156107e057600080fd5b506001600160a01b0381358116916020810135916040820135916060810135916080820135169060a08101359060c081013515159060ff60e082013516906101008101359061012001356118c2565b34801561083b57600080fd5b50610891600480360361010081101561085357600080fd5b506001600160a01b038135811691602081013582169160408201359160608101359160808201359160a08101359160c0820135169060e001356119d6565b60408051938452602084019290925282820152519081900360600190f35b610891600480360360c08110156108c557600080fd5b506001600160a01b0381358116916020810135916040820135916060810135916080820135169060a00135611b12565b600080824281101561093c576040805162461bcd60e51b81526020600482015260156024820152600080516020612e99833981519152604482015290519081900360640190fd5b61096b897f00000000000000000000000000000000000000000000000000000000000000008a8a8a308a61162d565b909350915061097b898685611db7565b7f00000000000000000000000000000000000000000000000000000000000000006001600160a01b0316632e1a7d4d836040518263ffffffff1660e01b815260040180828152602001915050600060405180830381600087803b1580156109e157600080fd5b505af11580156109f5573d6000803e3d6000fd5b50505050610a038583611f0b565b50965096945050505050565b6000610a1c848484612003565b949350505050565b60608142811015610a6a576040805162461bcd60e51b81526020600482015260156024820152600080516020612e99833981519152604482015290519081900360640190fd5b6001600160a01b037f00000000000000000000000000000000000000000000000000000000000000001686866000198101818110610aa457fe5b905060200201356001600160a01b03166001600160a01b031614610b0f576040805162461bcd60e51b815260206004820152601a60248201527f427574746572526f757465723a20494e56414c49445f50415448000000000000604482015290519081900360640190fd5b610b6d7f0000000000000000000000000000000000000000000000000000000000000000898888808060200260200160405190810160405280939291908181526020018383602002808284376000920191909152506120f392505050565b91508682600184510381518110610b8057fe5b60200260200101511015610bc55760405162461bcd60e51b815260040180806020018281038252602881526020018061304b6028913960400191505060405180910390fd5b610c6386866000818110610bd557fe5b905060200201356001600160a01b031633610c497f00000000000000000000000000000000000000000000000000000000000000008a8a6000818110610c1757fe5b905060200201356001600160a01b03168b8b6001818110610c3457fe5b905060200201356001600160a01b031661223f565b85600081518110610c5657fe5b60200260200101516122ff565b610ca28287878080602002602001604051908101604052809392919081815260200183836020028082843760009201919091525030925061245c915050565b7f00000000000000000000000000000000000000000000000000000000000000006001600160a01b0316632e1a7d4d83600185510381518110610ce157fe5b60200260200101516040518263ffffffff1660e01b815260040180828152602001915050600060405180830381600087803b158015610d1f57600080fd5b505af1158015610d33573d6000803e3d6000fd5b50505050610d588483600185510381518110610d4b57fe5b6020026020010151611f0b565b509695505050505050565b6060610d907f000000000000000000000000000000000000000000000000000000000000000084846126a2565b90505b92915050565b6000806000610dc97f00000000000000000000000000000000000000000000000000000000000000008f8f61223f565b9050600087610dd8578c610ddc565b6000195b6040805163d505accf60e01b815233600482015230602482015260448101839052606481018c905260ff8a16608482015260a4810189905260c4810188905290519192506001600160a01b0384169163d505accf9160e48082019260009290919082900301818387803b158015610e5257600080fd5b505af1158015610e66573d6000803e3d6000fd5b50505050610e798f8f8f8f8f8f8f61162d565b809450819550505050509b509b9950505050505050505050565b60608142811015610ed9576040805162461bcd60e51b81526020600482015260156024820152600080516020612e99833981519152604482015290519081900360640190fd5b610f377f0000000000000000000000000000000000000000000000000000000000000000898888808060200260200160405190810160405280939291908181526020018383602002808284376000920191909152506120f392505050565b91508682600184510381518110610f4a57fe5b60200260200101511015610f8f5760405162461bcd60e51b815260040180806020018281038252602881526020018061304b6028913960400191505060405180910390fd5b610f9f86866000818110610bd557fe5b610d588287878080602002602001604051908101604052809392919081815260200183836020028082843760009201919091525089925061245c915050565b60008061102c7f00000000000000000000000000000000000000000000000000000000000000008d7f000000000000000000000000000000000000000000000000000000000000000061223f565b905060008661103b578b61103f565b6000195b6040805163d505accf60e01b815233600482015230602482015260448101839052606481018b905260ff8916608482015260a4810188905260c4810187905290519192506001600160a01b0384169163d505accf9160e48082019260009290919082900301818387803b1580156110b557600080fd5b505af11580156110c9573d6000803e3d6000fd5b505050506110db8d8d8d8d8d8d6114ac565b9d9c50505050505050505050505050565b60608142811015611132576040805162461bcd60e51b81526020600482015260156024820152600080516020612e99833981519152604482015290519081900360640190fd5b7f00000000000000000000000000000000000000000000000000000000000000006001600160a01b03168686600081811061116957fe5b905060200201356001600160a01b03166001600160a01b0316146111d4576040805162461bcd60e51b815260206004820152601a60248201527f427574746572526f757465723a20494e56414c49445f50415448000000000000604482015290519081900360640190fd5b6112327f0000000000000000000000000000000000000000000000000000000000000000348888808060200260200160405190810160405280939291908181526020018383602002808284376000920191909152506120f392505050565b9150868260018451038151811061124557fe5b6020026020010151101561128a5760405162461bcd60e51b815260040180806020018281038252602881526020018061304b6028913960400191505060405180910390fd5b7f00000000000000000000000000000000000000000000000000000000000000006001600160a01b031663d0e30db0836000815181106112c657fe5b60200260200101516040518263ffffffff1660e01b81526004016000604051808303818588803b1580156112f957600080fd5b505af115801561130d573d6000803e3d6000fd5b50505050507f00000000000000000000000000000000000000000000000000000000000000006001600160a01b031663a9059cbb61138f7f00000000000000000000000000000000000000000000000000000000000000008989600081811061137257fe5b905060200201356001600160a01b03168a8a6001818110610c3457fe5b8460008151811061139c57fe5b60200260200101516040518363ffffffff1660e01b815260040180836001600160a01b03166001600160a01b0316815260200182815260200192505050602060405180830381600087803b1580156113f357600080fd5b505af1158015611407573d6000803e3d6000fd5b505050506040513d602081101561141d57600080fd5b505161142557fe5b6114648287878080602002602001604051908101604052809392919081815260200183836020028082843760009201919091525089925061245c915050565b5095945050505050565b6000610a1c8484846127da565b7f000000000000000000000000000000000000000000000000000000000000000081565b6000610a1c8484846128ca565b600081428110156114f2576040805162461bcd60e51b81526020600482015260156024820152600080516020612e99833981519152604482015290519081900360640190fd5b611521887f0000000000000000000000000000000000000000000000000000000000000000898989308961162d565b604080516370a0823160e01b815230600482015290519194506115a592508a9187916001600160a01b038416916370a0823191602480820192602092909190829003018186803b15801561157457600080fd5b505afa158015611588573d6000803e3d6000fd5b505050506040513d602081101561159e57600080fd5b5051611db7565b7f00000000000000000000000000000000000000000000000000000000000000006001600160a01b0316632e1a7d4d836040518263ffffffff1660e01b815260040180828152602001915050600060405180830381600087803b15801561160b57600080fd5b505af115801561161f573d6000803e3d6000fd5b50505050610d588483611f0b565b6000808242811015611674576040805162461bcd60e51b81526020600482015260156024820152600080516020612e99833981519152604482015290519081900360640190fd5b60006116a17f00000000000000000000000000000000000000000000000000000000000000008c8c61223f565b604080516323b872dd60e01b81523360048201526001600160a01b03831660248201819052604482018d9052915192935090916323b872dd916064808201926020929091908290030181600087803b1580156116fc57600080fd5b505af1158015611710573d6000803e3d6000fd5b505050506040513d602081101561172657600080fd5b50506040805163226bf2d160e21b81526001600160a01b03888116600483015282516000938493928616926389afcb44926024808301939282900301818787803b15801561177357600080fd5b505af1158015611787573d6000803e3d6000fd5b505050506040513d604081101561179d57600080fd5b508051602090910151909250905060006117b78e8e612976565b509050806001600160a01b03168e6001600160a01b0316146117da5781836117dd565b82825b90975095508a8710156118215760405162461bcd60e51b8152600401808060200182810382526023815260200180612f8b6023913960400191505060405180910390fd5b898610156118605760405162461bcd60e51b8152600401808060200182810382526023815260200180612eb96023913960400191505060405180910390fd5b505050505097509795505050505050565b7f000000000000000000000000000000000000000000000000000000000000000081565b6060610d907f000000000000000000000000000000000000000000000000000000000000000084846120f3565b60008060006119127f00000000000000000000000000000000000000000000000000000000000000008e7f000000000000000000000000000000000000000000000000000000000000000061223f565b9050600087611921578c611925565b6000195b6040805163d505accf60e01b815233600482015230602482015260448101839052606481018c905260ff8a16608482015260a4810189905260c4810188905290519192506001600160a01b0384169163d505accf9160e48082019260009290919082900301818387803b15801561199b57600080fd5b505af11580156119af573d6000803e3d6000fd5b505050506119c18e8e8e8e8e8e6108f5565b909f909e509c50505050505050505050505050565b60008060008342811015611a1f576040805162461bcd60e51b81526020600482015260156024820152600080516020612e99833981519152604482015290519081900360640190fd5b611a2d8c8c8c8c8c8c612a54565b90945092506000611a5f7f00000000000000000000000000000000000000000000000000000000000000008e8e61223f565b9050611a6d8d3383886122ff565b611a798c3383876122ff565b806001600160a01b0316636a627842886040518263ffffffff1660e01b815260040180826001600160a01b03166001600160a01b03168152602001915050602060405180830381600087803b158015611ad157600080fd5b505af1158015611ae5573d6000803e3d6000fd5b505050506040513d6020811015611afb57600080fd5b5051949d939c50939a509198505050505050505050565b60008060008342811015611b5b576040805162461bcd60e51b81526020600482015260156024820152600080516020612e99833981519152604482015290519081900360640190fd5b611b898a7f00000000000000000000000000000000000000000000000000000000000000008b348c8c612a54565b90945092506000611bdb7f00000000000000000000000000000000000000000000000000000000000000008c7f000000000000000000000000000000000000000000000000000000000000000061223f565b9050611be98b3383886122ff565b7f00000000000000000000000000000000000000000000000000000000000000006001600160a01b031663d0e30db0856040518263ffffffff1660e01b81526004016000604051808303818588803b158015611c4457600080fd5b505af1158015611c58573d6000803e3d6000fd5b50505050507f00000000000000000000000000000000000000000000000000000000000000006001600160a01b031663a9059cbb82866040518363ffffffff1660e01b815260040180836001600160a01b03166001600160a01b0316815260200182815260200192505050602060405180830381600087803b158015611cdd57600080fd5b505af1158015611cf1573d6000803e3d6000fd5b505050506040513d6020811015611d0757600080fd5b5051611d0f57fe5b806001600160a01b0316636a627842886040518263ffffffff1660e01b815260040180826001600160a01b03166001600160a01b03168152602001915050602060405180830381600087803b158015611d6757600080fd5b505af1158015611d7b573d6000803e3d6000fd5b505050506040513d6020811015611d9157600080fd5b5051925034841015611da957611da933853403611f0b565b505096509650969350505050565b604080516001600160a01b038481166024830152604480830185905283518084039091018152606490920183526020820180516001600160e01b031663a9059cbb60e01b178152925182516000946060949389169392918291908083835b60208310611e345780518252601f199092019160209182019101611e15565b6001836020036101000a0380198251168184511680821785525050505050509050019150506000604051808303816000865af19150503d8060008114611e96576040519150601f19603f3d011682016040523d82523d6000602084013e611e9b565b606091505b5091509150818015611ec9575080511580611ec95750808060200190516020811015611ec657600080fd5b50515b611f045760405162461bcd60e51b815260040180806020018281038252602d81526020018061301e602d913960400191505060405180910390fd5b5050505050565b604080516000808252602082019092526001600160a01b0384169083906040518082805190602001908083835b60208310611f575780518252601f199092019160209182019101611f38565b6001836020036101000a03801982511681845116808217855250505050505090500191505060006040518083038185875af1925050503d8060008114611fb9576040519150601f19603f3d011682016040523d82523d6000602084013e611fbe565b606091505b5050905080611ffe5760405162461bcd60e51b8152600401808060200182810382526034815260200180612f576034913960400191505060405180910390fd5b505050565b60008084116120435760405162461bcd60e51b8152600401808060200182810382526028815260200180612f2f6028913960400191505060405180910390fd5b6000831180156120535750600082115b61208e5760405162461bcd60e51b8152600401808060200182810382526025815260200180612ff96025913960400191505060405180910390fd5b60006120a2856103e563ffffffff612cc816565b905060006120b6828563ffffffff612cc816565b905060006120dc836120d0886103e863ffffffff612cc816565b9063ffffffff612d2b16565b90508082816120e757fe5b04979650505050505050565b606060028251101561214c576040805162461bcd60e51b815260206004820152601b60248201527f4275747465724c6962726172793a20494e56414c49445f504154480000000000604482015290519081900360640190fd5b815167ffffffffffffffff8111801561216457600080fd5b5060405190808252806020026020018201604052801561218e578160200160208202803683370190505b509050828160008151811061219f57fe5b60200260200101818152505060005b6001835103811015612237576000806121f1878685815181106121cd57fe5b60200260200101518786600101815181106121e457fe5b6020026020010151612d7a565b9150915061221384848151811061220457fe5b60200260200101518383612003565b84846001018151811061222257fe5b602090810291909101015250506001016121ae565b509392505050565b600080600061224e8585612976565b604080516bffffffffffffffffffffffff19606094851b811660208084019190915293851b81166034830152825160288184030181526048830184528051908501206001600160f81b031960688401529a90941b9093166069840152607d8301989098527fbd453c3b70eca359ba7be49a87c127fbd47c6ccf8208bb3159d50081c3d0aae4609d808401919091528851808403909101815260bd909201909752805196019590952095945050505050565b604080516001600160a01b0385811660248301528481166044830152606480830185905283518084039091018152608490920183526020820180516001600160e01b03166323b872dd60e01b17815292518251600094606094938a169392918291908083835b602083106123845780518252601f199092019160209182019101612365565b6001836020036101000a0380198251168184511680821785525050505050509050019150506000604051808303816000865af19150503d80600081146123e6576040519150601f19603f3d011682016040523d82523d6000602084013e6123eb565b606091505b5091509150818015612419575080511580612419575080806020019051602081101561241657600080fd5b50515b6124545760405162461bcd60e51b8152600401808060200182810382526031815260200180612efe6031913960400191505060405180910390fd5b505050505050565b60005b600183510381101561269c5760008084838151811061247a57fe5b602002602001015185846001018151811061249157fe5b60200260200101519150915060006124a98383612976565b50905060008785600101815181106124bd57fe5b60200260200101519050600080836001600160a01b0316866001600160a01b0316146124eb578260006124ef565b6000835b91509150600060028a510388106125065788612547565b6125477f0000000000000000000000000000000000000000000000000000000000000000878c8b6002018151811061253a57fe5b602002602001015161223f565b90506125747f0000000000000000000000000000000000000000000000000000000000000000888861223f565b6001600160a01b031663022c0d9f84848460006040519080825280601f01601f1916602001820160405280156125b1576020820181803683370190505b506040518563ffffffff1660e01b815260040180858152602001848152602001836001600160a01b03166001600160a01b0316815260200180602001828103825283818151815260200191508051906020019080838360005b8381101561262257818101518382015260200161260a565b50505050905090810190601f16801561264f5780820380516001836020036101000a031916815260200191505b5095505050505050600060405180830381600087803b15801561267157600080fd5b505af1158015612685573d6000803e3d6000fd5b50506001909901985061245f975050505050505050565b50505050565b60606002825110156126fb576040805162461bcd60e51b815260206004820152601b60248201527f4275747465724c6962726172793a20494e56414c49445f504154480000000000604482015290519081900360640190fd5b815167ffffffffffffffff8111801561271357600080fd5b5060405190808252806020026020018201604052801561273d578160200160208202803683370190505b509050828160018351038151811061275157fe5b60209081029190910101528151600019015b8015612237576000806127938786600186038151811061277f57fe5b60200260200101518786815181106121e457fe5b915091506127b58484815181106127a657fe5b602002602001015183836127da565b8460018503815181106127c457fe5b6020908102919091010152505060001901612763565b600080841161281a5760405162461bcd60e51b8152600401808060200182810382526029815260200180612fd06029913960400191505060405180910390fd5b60008311801561282a5750600082115b6128655760405162461bcd60e51b8152600401808060200182810382526025815260200180612ff96025913960400191505060405180910390fd5b60006128896103e861287d868863ffffffff612cc816565b9063ffffffff612cc816565b905060006128a36103e561287d868963ffffffff612e4816565b90506128c060018284816128b357fe5b049063ffffffff612d2b16565b9695505050505050565b600080841161290a5760405162461bcd60e51b8152600401808060200182810382526022815260200180612edc6022913960400191505060405180910390fd5b60008311801561291a5750600082115b6129555760405162461bcd60e51b8152600401808060200182810382526025815260200180612ff96025913960400191505060405180910390fd5b82612966858463ffffffff612cc816565b8161296d57fe5b04949350505050565b600080826001600160a01b0316846001600160a01b031614156129ca5760405162461bcd60e51b8152600401808060200182810382526022815260200180612fae6022913960400191505060405180910390fd5b826001600160a01b0316846001600160a01b0316106129ea5782846129ed565b83835b90925090506001600160a01b038216612a4d576040805162461bcd60e51b815260206004820152601b60248201527f4275747465724c6962726172793a205a45524f5f414444524553530000000000604482015290519081900360640190fd5b9250929050565b6040805163e6a4390560e01b81526001600160a01b03888116600483015287811660248301529151600092839283927f00000000000000000000000000000000000000000000000000000000000000009092169163e6a4390591604480820192602092909190829003018186803b158015612ace57600080fd5b505afa158015612ae2573d6000803e3d6000fd5b505050506040513d6020811015612af857600080fd5b50516001600160a01b03161415612bab57604080516364e329cb60e11b81526001600160a01b038a81166004830152898116602483015291517f00000000000000000000000000000000000000000000000000000000000000009092169163c9c65396916044808201926020929091908290030181600087803b158015612b7e57600080fd5b505af1158015612b92573d6000803e3d6000fd5b505050506040513d6020811015612ba857600080fd5b50505b600080612bd97f00000000000000000000000000000000000000000000000000000000000000008b8b612d7a565b91509150816000148015612beb575080155b15612bfb57879350869250612cbb565b6000612c088984846128ca565b9050878111612c5b5785811015612c505760405162461bcd60e51b8152600401808060200182810382526023815260200180612eb96023913960400191505060405180910390fd5b889450925082612cb9565b6000612c688984866128ca565b905089811115612c7457fe5b87811015612cb35760405162461bcd60e51b8152600401808060200182810382526023815260200180612f8b6023913960400191505060405180910390fd5b94508793505b505b5050965096945050505050565b6000811580612ce357505080820282828281612ce057fe5b04145b610d93576040805162461bcd60e51b815260206004820152601460248201527364732d6d6174682d6d756c2d6f766572666c6f7760601b604482015290519081900360640190fd5b80820182811015610d93576040805162461bcd60e51b815260206004820152601460248201527364732d6d6174682d6164642d6f766572666c6f7760601b604482015290519081900360640190fd5b6000806000612d898585612976565b509050600080612d9a88888861223f565b6001600160a01b0316630902f1ac6040518163ffffffff1660e01b815260040160a06040518083038186803b158015612dd257600080fd5b505afa158015612de6573d6000803e3d6000fd5b505050506040513d60a0811015612dfc57600080fd5b5080516020909101516dffffffffffffffffffffffffffff91821693501690506001600160a01b0387811690841614612e36578082612e39565b81815b90999098509650505050505050565b80820382811115610d93576040805162461bcd60e51b815260206004820152601560248201527464732d6d6174682d7375622d756e646572666c6f7760581b604482015290519081900360640190fdfe427574746572526f757465723a20455850495245440000000000000000000000427574746572526f757465723a20494e53554646494349454e545f425f414d4f554e544275747465724c6962726172793a20494e53554646494349454e545f414d4f554e545472616e7366657248656c7065723a3a7472616e7366657246726f6d3a207472616e7366657246726f6d206661696c65644275747465724c6962726172793a20494e53554646494349454e545f494e5055545f414d4f554e545472616e7366657248656c7065723a3a736166655472616e736665724554483a20455448207472616e73666572206661696c6564427574746572526f757465723a20494e53554646494349454e545f415f414d4f554e544275747465724c6962726172793a204944454e544943414c5f4144445245535345534275747465724c6962726172793a20494e53554646494349454e545f4f55545055545f414d4f554e544275747465724c6962726172793a20494e53554646494349454e545f4c49515549444954595472616e7366657248656c7065723a3a736166655472616e736665723a207472616e73666572206661696c6564427574746572526f757465723a20494e53554646494349454e545f4f55545055545f414d4f554e54a264697066735822122089a3f918eeb0c10b4edfd08b88e0608728bc79d3f6f25b1827d510daaf4870e264736f6c63430006060033",
  "devdoc": {
    "methods": {}
  },
  "userdoc": {
    "methods": {}
  },
  "storageLayout": {
    "storage": [],
    "types": null
  }
}